:020000040000FA
:1000000080312D28003008007E1480310B1F092814
:100010000A282B282100111E0E280F281A2820003C
:10002000111E132814281A286B088A006A080A006F
:1000300080312B282100911E1E281F282B282000EC
:10004000911E232824282B2821004E088A004D08C1
:100050000A0080312B287E10090080312F2874304F
:100060008400893085006D308600003087000330C1
:100070008931C42180315B3084008A308500B830FA
:100080008600003087000F308931C4218031FC01A7
:100090004A3084000030850020308931BE21803113
:1000A000A03084000030850018308931BE218031B5
:1000B0007E1020008E31942E2000AD00A801A901F1
:1000C000AA01AB01A701A401A5012D080319692804
:1000D0006A28B2287B0803196E286F28B2282D08D9
:1000E000083E8600870181197628772887287B08B3
:1000F000083E86008701811D7E287F2887282D08DD
:10010000083E860087018115A401A40AD8287B082F
:10011000083E8600870181198E288F289F282D0888
:10012000083E86008701811D962897289F287B0816
:10013000083E860087018115A501A50AD8282D084B
:10014000083E860087018119A628A728B1287B08C8
:10015000083E860087018119AE28AF28B1280030FB
:100160007F2AD8282D08031DB628B728C5287B0864
:100170000319BB28BC28C5287B08083E86008701D8
:100180008119C328C428D828AF282D080319C928E5
:10019000CA28D8287B08031DCE28CF28D8282D08A8
:1001A000083E860087018119D628D728D828AF288D
:1001B0007B088A313D228031003A0319E028E1288A
:1001C000E4282000A701A70A2E0012082000A000A2
:1001D0002008A1002E0013082000A0002008A20083
:1001E0002F0013082000A0002008A3008A316A22F3
:1001F000803120002D080319FE28FF2811292D0821
:10020000043E860087010108FF3EA0002008AC00E4
:10021000A60140302E0098002F00980122001D10EA
:1002200023297B08043E860087010108FF3EA000C9
:100230002008AC00A601A60A2E00980140302F002D
:10024000980022001D14F20120002D08843163243F
:100250008031F201F20A7B0884316324803120006E
:1002600056105611D6116F0889319021803189318D
:100270006E2180312000CE01CF012608031D4129C7
:1002800042294D29111B452946294729D610111FFE
:100290004A294B29472911135729121B5029512943
:1002A0005229D610121F55295629522912132130CE
:1002B000A00020082E00980621302000A000200871
:1002C0002F009806C0302000A00020082E009406C1
:1002D000C0302000A00020082F00940620002C1819
:1002E00072297329BE292E001A082000CA072E0081
:1002F0001B082000CB3D2F001A082000CC072F0040
:100300001B082000CD3D2708031D87298829A32924
:100310002E001A0820002A02F1002E001B082000DF
:100320002B3BF2008B318D23803171082000CE07EA
:100330007208CF3D2E001B082000AB002E001A08CB
:100340002000AA00012A2F001A0820002A02F1002A
:100350002F001B0820002B3BF2008B318D238031B6
:1003600071082000CE077208CF3D2F001B08200027
:10037000AB002F001A082000AA00012A2E001A083C
:100380002000CA022E001B082000CB3B2F001A08B9
:100390002000CC022F001B082000CD3B2708031DA6
:1003A000D229D329EE292E001A0820002802F100B4
:1003B0002E001B082000293BF2008B318D23803159
:1003C00071082000CE077208CF3D2E001B082000C8
:1003D000A9002E001A082000A800012A2F001A08E0
:1003E00020002802F1002F001B082000293BF2000A
:1003F0008B318D23803171082000CE077208CF3DEC
:10040000E5292C08031D052A062A072A561401305F
:10041000AC02D61C0C2A0D2A0F2A56155614D614D7
:10042000561C132A142A3D2989317121803120005C
:1004300021082E009200200022082E0093002000A8
:1004400023082F0093002000561D272A282A2A2A35
:10045000FB307F2AD61D2D2A2E2A302AFA307F2AF9
:1004600024080319342A352A3A2A2D08083E860022
:1004700087018111250803193E2A3F2A442A7B0857
:10048000083E8600870181112D088A319C22803127
:10049000003A03194C2A4D2A5C2A20002D08893184
:1004A000FF218031003A031D562A572A5C2A20007A
:1004B0002D088531C52580317B088A319C22803109
:1004C000003A0319642A652A722A7B088931FF21C0
:1004D0008031003A031D6D2A6E2A722A7B0885310D
:1004E000C52580312E0096012F0096012E00970120
:1004F0002F0097012E0011102F001110AF280800B7
:100500002000B30033088C311A2482317108200096
:10051000A5007208A6007308A7007408A800330895
:100520008B31DE23823120002008A5022108A63B62
:100530002208A73B2308A83B2808B2002708B100DF
:100540002608B0002508AF002F08A5003008A60037
:100550003108A7003208A800330EF03933073307FB
:10056000693E86008701010AB92AA837A70CA60CA4
:10057000A50C890BB52A2808B2002708B100260867
:10058000B0002508AF00B21BD32A3208031DD42ABD
:100590003108031DD42A3008031DD42A80302F02CD
:1005A000031CD32AD42ADC2A0030B2000030B10068
:1005B0000030B0007F30AF00B21FE92A80302F0238
:1005C000FF30303BFF30313BFF30323B0318E92A2C
:1005D000EA2AF22AFF30B200FF30B100FF30B0004B
:1005E0008030AF00B21FF52AF62AFF2A330EF03909
:1005F00033073307633E860087018101972B2F085D
:10060000803AA500330EF03933073307683E860081
:1006100087010108A60003300310A61B0314A60CD3
:10062000890B0C2B2608803AA5020318182B192BCE
:10063000332B330EF03933073307633E86008701CF
:100640000108803A7F3E031C262B272B972BFF3077
:10065000A500330EF03933073307633E8600870168
:1006600025088107972B330EF03933073307633E94
:10067000860087010108A50002300310A51B0314A2
:10068000A50C890B3D2B330EF03933073307633E3E
:100690008600870125088102330EF03933073307BE
:1006A000633E860087010108A500A601A51BA603DD
:1006B0007F30A70025082702A80026090318890A09
:1006C000A9002808AA002908AB000030AB1BFF30A6
:1006D000AC00AD003208803AAE002D08803A2E0200
:1006E000031D7C2B2C083102031D7C2B2B083002B0
:1006F000031D7C2B2A082F0203187F2B802B8C2BA9
:100700002F08A500330EF03933073307633E860008
:10071000870125088107972B7F30A500330EF0391C
:1007200033073307633E86008701250881000800F0
:10073000200025088600870101088C311A248331A6
:1007400071082000A6007208A7007308A8007408AA
:10075000A90025088600870101088B31DE2383313B
:1007600020002008A6022108A73B2208A83B230856
:10077000A93B2908B0002808AF002708AE002608CA
:10078000AD002508103E860087010108A600A701DC
:10079000A61BA703A609A709A60A0319A70A2608E4
:1007A000A8002708A9000030A91BFF30AA00AB0051
:1007B0003008803AAC002B08803A2C02031DEA2B4B
:1007C0002A082F02031DEA2B29082E02031DEA2BFB
:1007D00028082D020318ED2BEE2B172C25080C3EB4
:1007E000860087010130810741310318810A2508FD
:1007F0000C3E86008701403FA600413FA700003025
:100800002702213003192602031C072C082C402C38
:1008100025080C3E860087010030C03FC13F2508F7
:100820008600870101088C319A248331402C2508E9
:10083000103E860087010108803AA60025080B3E7D
:10084000860087010108803AA6020318282C292C6B
:10085000392C0230A6002508023E860087012608B2
:10086000810025080C3E860087010030C03FC13F53
:10087000402C25080C3E860087010030C03FC13F58
:10088000200025080E3E8600870101308107413196
:100890000318810A25080E3E860087011600803A5B
:1008A000A6001600A604031D562C572C622C250802
:1008B0000E3E860087010030C03FC13F25088631CB
:1008C0005D2683310800F9007908031D682C692C26
:1008D0006A2C292D7208031D6E2C6F2C722CF601C8
:1008E000F701762C8030F6000030F7007608F30030
:1008F0007308F800790A860087010108F300780878
:10090000113EF400F5010730F53D740886007508C6
:100910008700730881007908053E86008701010879
:10092000F3007808193EF400F5010730F53D74082E
:10093000860075088700730881007808133EF3006D
:10094000F4010730F43D73088600740887005030C6
:100950008100FE30F3007808183E860087010730DA
:10096000873D7308810579088931FF218431003A78
:100970000319BB2CBC2CE12C7908023E86008701B0
:100980000108F3007808163EF400F5010730F53D44
:100990007408860075088700730881007908033E93
:1009A000860087010108F3007808173EF400F5017E
:1009B0000730F53D740886007508870073088100CC
:1009C000152D7808163EF300F4010730F43D730846
:1009D0008600740887002030810079088931E6217B
:1009E0008431003A0319F52CF62C092D7908033EC1
:1009F000860087010108F3007808173EF400F5012E
:100A00000730F53D7408860075088700730881007B
:100A1000152D7808173EF300F4010730F43D7308F4
:100A2000860074088700203081007908043E860023
:100A300087010108F300F4010930F335F40D890B47
:100A40001D2D72354A3E860087017308C03F740829
:100A5000C13F08002000C2004208BF00C001BF35EE
:100A6000C00D17303F0784009030403D85000008DE
:100A7000C1004108C4004208BF00C001BF35C00D1D
:100A800018303F0784009030403D85000008C100C9
:100A90004108C5004508BF003F08BB004408873136
:100AA000632785312000C0004008C3009F2D440803
:100AB0008A319C228531003A03195F2D602D7A2DF1
:100AC00020005708031D652D662D6A2D44088C31C2
:100AD000E8248531200044088931D821853120005F
:100AE0004408860087010108BF003F08F1008731F4
:100AF000FF278531200045088A319C228531003A44
:100B00000319832D842DC22D20005708031D892D24
:100B10008A2D8E2D45088C31E8248531200045082A
:100B20008931D821853120004508860087010108D8
:100B3000BF003F08F1008731FF278531C22D4308F0
:100B4000BF00C001BF1BC0034008003A0319AC2D11
:100B5000FF3A0319B12DC22D3F08003A0319572D52
:100B6000C22D3F08FB3A0319C22D073A0319C22DC3
:100B7000013A0319C22D033A0319C22D013A031990
:100B8000C22DC22D200043080800FA007A088D31DA
:100B900068258531F5007508F9007A088931E62164
:100BA0008531003A031DD52DD62D0C2E79354A3EC0
:100BB00086008701403FF500413FF6007A08043E79
:100BC000860087010108F700F8010930F735F80DB4
:100BD000890BE62D76087802031DF02D7508770243
:100BE0000318F32DF42D072E0130F5007A08053E89
:100BF00086008701750881070F300102031C012E52
:100C0000022E5C2E7A088A31142285315C2E7A08F5
:100C10008A31142285315C2E7A08043E86008701D1
:100C20000108F500F601F535F60D7A08063E860056
:100C3000870179354A3E84008501403F0002F1007A
:100C40000131413F003BF2008B318D238531760825
:100C50007202031D2D2E750871020318302E312EDD
:100C60003E2E2030F5007A08023E86008701750886
:100C700081007A088A31082285315C2E0230F50025
:100C80007A08033E86008701750881077A08033ECB
:100C90008600870120300102031C4F2E502E5C2E4F
:100CA0002030F5007A08023E860087017508810031
:100CB0007A088A31082285310800F5008B1F612EE1
:100CC000622EA32E8B137508073E86008701403FD6
:100CD000F100413FF200423FF300433FF400043093
:100CE000F436F30CF20CF10C890B702E7508073EEC
:100CF000860087017108810241317208813B4131D0
:100D00007308813B41317408813B7D317508033E96
:100D100086008701403FF100413FF200423FF3006F
:100D2000433FF4007508073E86008701710881077C
:100D300041317208813D41317308813D4131740870
:100D4000813D8B17E12E7508073E86008701403FE5
:100D5000F100413FF200423FF300433FF400043012
:100D6000F436F30CF20CF10C890BB02E7508073E2B
:100D7000860087017108810241317208813B41314F
:100D80007308813B41317408813B7D317508033E16
:100D900086008701403FF100413FF200423FF300EF
:100DA000433FF4007508073E8600870171088107FC
:100DB00041317208813D41317308813D41317408F0
:100DC000813D08002000B1004F08B0004E08AF0080
:100DD000B036AF0CB036AF0C4E082F07B2004F083C
:100DE000303DB3006F08AF002F08B4004B08B700C8
:100DF0004A08B6004D08B9004C08B800BA013A08D4
:100E0000123E840090300318013E85000008AF00B8
:100E10002F08EF07AE306F0203180F2F102F142F7B
:100E2000AE30AF002F08EF070530AF002F08B50038
:100E3000232F01302000B5023508031D202F212F5C
:100E4000232FFC30622F2E08AF002F08FB00310843
:100E500080315C208631003A031D2F2F302F192F4F
:100E600020004F083302031D372F4E0832020318AB
:100E70003A2F3B2F4B2F4F08B3004E08B2006F089C
:100E8000AF002F08B4004B08B7004A08B6004D0861
:100E9000B9004C08B8000130AF002F08BA07053080
:100EA0003A02031C542F552FFF2E3408AF002F0891
:100EB000EF003708CB003608CA003908CD003808E3
:100EC000CC00003008002000BE000530BC003C080B
:100ED000BD003E08031D6D2F6E2F7F2F3B08031DA5
:100EE000722F732F7F2FFF30D32F01302000BD02D0
:100EF0003D08031D7C2F7D2F7F2FFC30D32F3B0817
:100F0000BC003C08FB003E0880315C208731003A81
:100F1000031D8B2F8C2F752F20003E080319912F56
:100F2000922F962F3E088D31D425873120003B0823
:100F300003199B2F9C2FA02F3B088D31D42587317F
:100F400020003E088A313D228731003A0319A92F3B
:100F5000AA2FB42F20003E088931FF218731003AA3
:100F6000031DB32FB42FC82F20003B088A313D2228
:100F70008731003A0319BD2FBE2FD22F20003B0826
:100F80008931FF218731003A0319C72FC82FD22F8B
:100F900020003B08BC003C08AE003E088631E2263B
:100FA0008731D32F00300800F900790A86008701C5
:100FB00001088B314123873175082000A000760895
:100FC000A100A201A3017908073E8600870120083D
:100FD000C03F2108C13F2208C23F2308C33F790810
:100FE000073E86008701053081354131810D413151
:100FF000810D4131810D7D31890BF42F08000800EE
:1012DA00080020001C15080020001C110800FF341B
:1012EA000734AE348B3173238931080023001D1271
:1012FA001D16080023001E0C0139080089319521AA
:10130A0089310800163021009700080000308E311C
:10131A00DA2689310800F100710820009B000800D4
:10132A0058308C31C1248931080072082100C80064
:10133A007108C700080072082100CC007108CB00B0
:10134A00080072082100CA007108C9000800720862
:10135A002100CE007108CD00080072082000EB00C1
:10136A007108EA00080070302100990022009601F5
:10137A000800640080010131890BBF290034FE0096
:10138A0012001E00FE0BC5290034F1007108083E48
:10139A008600870181140800F1007108083E860062
:1013AA00870181100800F1007108083E8600870154
:1013BA0001140800F1007108083E86008701011037
:1013CA000800F1007108083E86008701010E013904
:1013DA000800FF3020009B009A01911004309C0005
:1013EA00080020006C08031DFB29FD290130FE2995
:1013FA0000300800F1007108083E86008701010CE0
:10140A00890C01390800F1007108083E860087013D
:10141A0001157108083E8600870101120800F100D3
:10142A007108083E8600870101167108033E86008E
:10143A0087018101810A08008A314C228A318A3166
:10144A008B228A318B31FC238A318A316A228A3192
:10145A000800F6000930F5007508F10076088A31AF
:10146A00E7228A31C63E8600870101080139080051
:10147A00F1007108031D422A432A452A00304B2AEB
:10148A007108083E86008701010C01390800FA013B
:10149A007A088A31FC228A310130F9007908FA0780
:1014AA007A080319592A5A2A4D2A080050340E3448
:1014BA00983403342C340F3400343134303410343B
:1014CA0020340034003400340034FC3020009C0501
:1014DA002E0091012F00910180302E0092004030A1
:1014EA00940040302F0094000800FA008B1F7E2AD7
:1014FA007F2A862A8B137A088F3193278A318B1792
:10150A008A2A7A088F3193278A3108000030F1003D
:10151A009030F2001230F3000030F40058308D3170
:10152A003A258A3100308C319A248A310800F20037
:10153A0072080319A12AA22AAC2A7208083E860058
:10154A008701010CF100F10C710C0139AD2A003050
:10155A000800F6007608031DB32AB42AC02A093007
:10156A00F5007508F10076088A31E7228A31C63E0D
:10157A008600870101110800F6007608031DC62AB5
:10158A00C72AD32A0930F5007508F10076088A318E
:10159A00E7228A31C63E86008701811508008B3111
:1015AA00A7238A318931B8218A31893187218A3141
:1015BA008931EE218A318E3111268A318A312122EE
:1015CA008A310800F400F301741CEC2AED2AF12A8E
:1015DA007108F2007208F3070310F10D0310F40CFE
:1015EA007408031DF92AFA2AE92A73080800F80080
:1015FA0078088A31C1228A3178088A31AE228A3142
:10160A000930F7007708F10078088A31E7228A3131
:10161A00BE3E8931DF218A310800F6007608031DB3
:10162A00172B182B272B0930F5007508F1007608BF
:10163A008A31E7228B31C63E86008701010C890C6C
:10164A000139282B00300800F1007108031D2E2BE8
:10165A002F2B3F2B710EF039710771075A3E860006
:10166A0087010230010603193B2B3D2B01303E2B2B
:10167A000030402B00300800F8007808031D462B84
:10168A00472B572B0930F7007708F10078088A3181
:10169A00E7228B31C43E86008701403FF500413F77
:1016AA00F600592BF501F60108002000C70147088A
:1016BA0085312A258B31003A0319642B652B672B58
:1016CA000030722B01302000C6004608C7074708C1
:1016DA000319702B712B5C2B0130080023001908A9
:1016EA00F0007C08A83E860087017008810001305E
:1016FA00F0007008FC0708307C02031C852B862B3F
:10170A00872BFC010130F00070082000D107080087
:10171A007208803AF30080307302031D962B013061
:10172A0071020318992B9A2BA62B7109F3007209DF
:10173A00F400F30A0319F40A7308F1007408F200BA
:10174A00A62B080022008C018D018E012F3021006A
:10175A008C0070308D006A308E007E3023008E003F
:10176A0050308D0027308C0024008D018C0121001F
:10177A00951722009D010800F3007308031DC62B6C
:10178A00C72BDD2B71080319CB2BCC2BDD2B80301B
:10179A0071020318D12BD22BDD2B7108F200730EC4
:1017AA00F03973077307683E860087017208810063
:1017BA000800FA007A08031DE32BE42BF22B7A08BF
:1017CA008C3158248B3174082000A3007308A200BE
:1017DA007208A1007108A000FB2B00302000A300B2
:1017EA000030A2000030A1000030A0000800BE3086
:1017FA00F2007208F300BE30F20073087202031896
:10180A00072C082C092C192C73088931DF218B31FC
:10181A000930F2007208F307BE30F2007308720250
:10182A000318182C192C092C0800F6007608031D39
:10183A001F2C202C302C760EF039760776075B3E6B
:10184A0086008701403FF100413FF200423FF3002A
:10185A00433FF400382C0030F4000030F30000302D
:10186A00F2000030F10008002000D501D50A8B31C2
:10187A005A238C31003A031D432C442C462C003049
:10188A00572C89318B218C31803102208C312000F8
:10189A00C8004808D5008B31FC238C31893183215B
:1018AA008C3101300800F900790EF039790779078F
:1018BA005F3E86008701403FF500413FF600423F08
:1018CA00F700433FF8000430F836F70CF60CF50C35
:1018DA00890B692C7808F4007708F3007608F2007F
:1018EA007508F1000800083020006C0203187E2CED
:1018FA007F2C972C5308B03E8600870101082300ED
:10190A009A000130F00070082000D3070830530213
:10191A00031C902C912C922CD3010130F0007008FA
:10192A00EC07992C210011120800F200720EF0390E
:10193A0072077207583EF1007108F3007308023EFD
:10194A008600870181017308073E860087010030FF
:10195A00C03F0030C13FC23FC33F73080C3E860000
:10196A0087010030C03FC13F73080E3E86008701E1
:10197A000030C03FC13F0800F3007308023E8600F2
:10198A00870102300106031DCB2CCC2CE72C7308EF
:10199A000C3E860087010130810741310318810A14
:1019AA0073080C3E8600870116000104031DDE2C15
:1019BA00DF2CE72C73080C3E86008701FF30C03FFE
:1019CA00FF30C13F0800F70077088D3168258C3158
:1019DA00F5007508F6008B1FF32CF42C032D8B13DE
:1019EA0076354A3E860087017708063E84008501DF
:1019FA00403F803F413F813F8B170F2D76354A3E4E
:101A0A00860087017708063E84008501403F803FB3
:101A1A00413F813F0800F20020006C080319162D8F
:101A2A00172D112D2100111A1B2D1C2D202D720886
:101A3A0023009A00372D11127208F1002000540871
:101A4A00B03E86008701710881000130F1007108FB
:101A5A00D40708305402031C332D342D352DD401FC
:101A6A000130EC02210011160800F9007208F70093
:101A7A007108F6007908F5007508FA005B2D7608FA
:101A8A008400770885000008F5007508F800013021
:101A9A00F6070030F73D7808F5007A0886008701D6
:101AAA00750881000130F5007508FA070130F30264
:101ABA000030F43B730A031D662D740A031D662D5C
:101ACA00672D442D0800F300F4017408F100F201B7
:101ADA00F135F20D1730710784009030723D8500A0
:101AEA0000087306031D7A2D7B2D7D2D00309A2D5B
:101AFA007408F100F201F135F20D18307107840013
:101B0A009030723D850000087306031D8D2D8E2DC1
:101B1A00902D01309A2D0130F1007108F4077408F4
:101B2A000319982D992D6A2D7B2D08007C08A03E5B
:101B3A0086008701810123001D1DA42DA52DB02D2E
:101B4A007C08A03E86008701811421004C088A0087
:101B5A004B080A008D3123009D1CB42DB52DC02DD4
:101B6A007C08A03E86008701011521004A088A00E8
:101B7A0049080A008D317C08A03E860087010108C9
:101B8A000319C82DC92DD02D210048088A004708FD
:101B9A000A008D31D32D8B3173238D310800F90062
:101BAA0079088D3168258D31F5007508F8007908B6
:101BBA008A319C228D31003A0319E42DE52DFC2D42
:101BCA007908063E8600870178354A3E84008501F9
:101BDA00403F0002F1000131413F003BF2008B31EE
:101BEA008D238D317208F7007108F600FE2DF6017B
:101BFA00F70100307702653003197602031C062EBE
:101C0A00072E0C2E79088931CA218D31102E7908B8
:101C1A008931D1218D310800210091129B30F100C8
:101C2A000D30F2008931AC218E3121001112783049
:101C3A00F1000C30F2008931B2218E3108302300D4
:101C4A009F0090309D0024309E0067309B009C01CD
:101C5A006D30F1000930F2008931A0218E317B30DC
:101C6A00F1000930F2008931A6218E317730F10076
:101C7A000930F20089319A218E312000D001D40135
:101C8A00D3010830F3007308EC00FC01D201D10142
:101C9A00210091160800200025080C3E86008701C5
:101CAA00403FA600413FA700003027020930031930
:101CBA0026020318612E622E672E25088731D42743
:101CCA008E316B2E250886315D268E31200025083F
:101CDA000C3E860087010130810741310318810AD1
:101CEA0025080C3E86008701403FA600413FA70019
:101CFA0000302702103003192602031C852E862E77
:101D0A00932E2508023E860087018101810A250853
:101D1A000C3E860087010030C03FC13F08008A316F
:101D2A00D4228E318B170B1750302000C900490876
:101D3A00F10000308B31C1238E318C3139248E3140
:101D4A00003A0319A92EAA2ECC2E00308B31292352
:101D5A008E31003A0319B22EB32ECA2E8931F621DA
:101D6A008E31003A0319BA2EBB2EC72E22000C164A
:101D7A000630890BBE2E003262308D3110258E312D
:101D8A0022008E1722000E14CC2E22000E1089314A
:101D9A007F218E31003A0319D32ED42EA22E22008F
:101DAA000C128E13A22E80312D282000B400340E7E
:101DBA00F03934073407583EFB007B08B500350A72
:101DCA008600870101088A312E228E31003A0319D2
:101DDA00EF2EF02E2B2F2000350A860087010108EE
:101DEA008B3112238E31003A0319FC2EFD2E2B2F34
:101DFA00200035088A317A228E3120003408823157
:101E0A0080228E3120003508023E86008701033089
:101E1A000102031C112F122F192F35088600870182
:101E2A0001088C319A248E3120003508FB007B088A
:101E3A00A5003508023E860087010135B83E8600B6
:101E4A008701413F8A00403F0A008F310800200085
:101E5A0025080C3E86008701403FA600413FA700A7
:101E6A0003302702E83003192602031C3D2F3E2FB8
:101E7A00462F25088600870101088C319A248F3164
:101E8A00922F2508103E860087010108A60001301E
:101E9A000310A61B0314A60C890B4D2F2508103E10
:101EAA008600870126080102A700A801031CA803CF
:101EBA00811F602FA8032000A61F642FA80A2000F4
:101ECA0025080B3E860087010108A900AA01A91B63
:101EDA00AA032A08803AAB002808803A2B02031D7D
:101EEA00782F2708290203187B2F7C2F922F200096
:101EFA002508023E860087018101810A25080C3ED9
:101F0A00860087010030C03FC13F25080E3E86008B
:101F1A008701FF30C03FFB30C13F0800F900790854
:101F2A00023E86008701010803199C2F9D2FDF2F8F
:101F3A007908033E86008701403F2000A000413F08
:101F4A00A100423FA200433FA3000130A336A20CE6
:101F5A00A10CA00C890BAB2F7908033E86008701E0
:101F6A002008810241312108813B41312208813B0D
:101F7A0041312308813B7D31790A860087010108B6
:101F8A008B3141238F3175082000A0007608A1000B
:101F9A00A201A3017908033E860087012008810770
:101FAA0041312108813D41312208813D41312308D7
:101FBA00813DFF2F790A8600870101088B31412371
:101FCA008F3175082000A0007608A100A035A10D68
:101FDA002008A2002108A300A401A5017908033E54
:101FEA00860087012208C03F2308C13F2408C23F58
:101FFA002508C33F0800003400340034003400349C
:10200A000034003400340034003400340034003426
:10201A000034003400347834003400340D341C3475
:08202A001E341734BE340034EB
:020000040001F9
:04000E00E4FDFFFF0F
:00000001FF
