:020000040000FA
:1000000080313B28003008007E1480310B1F092806
:100010000A2839282100111E0E280F281A2820002E
:10002000111E132814281A286E088A006D080A0069
:10003000803139282100911E1E281F282B282000DE
:10004000911E232824282B28210059088A005808AB
:100050000A00803139282100111C2F283028392826
:100060002000111C3428352839288A31CE228031CD
:1000700039287E10090080313D281A3084008A30EA
:1000800085005A308600003087000F308931892181
:100090008031CD30840089308500C8308600003042
:1000A00087000A30893189218031FA01FB014B3008
:1000B0008400003085000F30893183218031A030E9
:1000C00084000030850028308931832180317E1002
:1000D000200087312B2F2000B200AD01AE01AF010F
:1000E000B001AC01A901AA013208031978287928C6
:1000F000C128240803197D287E28C1283208083E1B
:100100008600870181198528862896282408083EBC
:1001100086008701811D8D288E2896283208083E8A
:10012000860087018115A901A90AE7282408083E4D
:100130008600870181199D289E28AE283208083E36
:1001400086008701811DA528A628AE282408083E20
:10015000860087018115AA01AA0AE7283208083E0D
:10016000860087018119B528B628C0282408083ED2
:10017000860087018119BD28BE28C0280030922A38
:10018000E7283208031DC528C628D42824080319E7
:10019000CA28CB28D4282408083E86008701811964
:1001A000D228D328E728BE2832080319D828D9280E
:1001B000E7282408031DDD28DE28E7283208083E4A
:1001C000860087018119E528E628E728BE2824084B
:1001D0008A310B228031003A0319EF28F028F328E6
:1001E0002000AC01AC0A2E0012082000A500250852
:1001F000A6002E0013082000A5002508A7002F0048
:1002000013082000A5002508A8008A312922803182
:100210002000320803190D290E2920293208043E36
:10022000860087010108FF3EA5002508B100AB014B
:1002300040302E0098002F00980122001D10322916
:100240002408043E860087010108FF3EA50025081A
:10025000B100AB01AB0A2E00980140302F0098008E
:1002600022001D14F30120003208823193228031D4
:10027000F301F30A20002408823193228031200008
:1002800058105811D8115F0889314F2180318931B8
:10029000352180312000D101D2012B08031D5129C5
:1002A00052295D29111B552956295729D810111F8C
:1002B0005A295B29572911136729121B60296129C3
:1002C0006229D810121F652966296229121321306C
:1002D000A50025082E00980621302000A50025083D
:1002E0002F009806C0302000A50025082E00940697
:1002F000C0302000A50025082F00940620003118EA
:1003000082298329CE292E001A082000CB072E002F
:100310001B082000CC3D2F001A082000CD072F001D
:100320001B082000CE3D2C08031D97299829B329CE
:100330002E001A0820002F02F2002E001B082000B9
:10034000303BF3008B318B23803172082000D107C2
:100350007308D23D2E001B082000B0002E001A08A2
:100360002000AF00112A2F001A0820002F02F200EF
:100370002F001B082000303BF3008B318B23803192
:1003800072082000D1077308D23D2F001B082000FF
:10039000B0002F001A082000AF00112A2E001A0802
:1003A0002000CB022E001B082000CC3B2F001A0897
:1003B0002000CD022F001B082000CE3B2C08031D7F
:1003C000E229E329FE292E001A0820002D02F2005E
:1003D0002E001B0820002E3BF3008B318B23803135
:1003E00072082000D1077308D23D2E001B082000A0
:1003F000AE002E001A082000AD00112A2F001A08A6
:1004000020002D02F2002F001B0820002E3BF300DD
:100410008B318B23803172082000D1077308D23DC5
:10042000F5293108031D152A162A172A58140130F8
:10043000B102D81C1C2A1D2A1F2A58155814D8147A
:10044000581C232A242A4D29893138218031200043
:1004500026082E009200200027082E00930020007E
:1004600028082F0093002000581D372A382A3A2ADE
:10047000FB30922AD81D3D2A3E2A402AFA30922A81
:1004800029080319442A452A4A2A3208083E8600C8
:10049000870181112A0803194E2A4F2A542A240859
:1004A000083E86008701811132088A316D22803131
:1004B000003A03195C2A5D2A6C2A2000320889312F
:1004C000C4218031003A031D662A672A6C2A200065
:1004D000320883315F238031200024088A316D2265
:1004E0008031003A0319752A762A852A20002408CB
:1004F0008931C4218031003A031D7F2A802A852A50
:100500002000240883315F2380312E0096012F00C4
:1005100096012E0097012F0097012E0011102F0039
:100520001110BE2808002000A3002308031D992AEB
:100530009A2A9B2A5E2B7308031D9F2AA02AA32AAE
:10054000A001A101A72A8030A0000030A10020084E
:10055000F4007408A200230A860087010108F40051
:100560002208113EF500F6010730F63D75088600B9
:1005700076088700740881002308053E86008701FD
:100580000108F4002208193EF500F6010730F63D97
:100590007508860076088700740881002208133EDB
:1005A000F400F5010730F53D7408860075088700F2
:1005B00050308100FE30F4002208183E860087018A
:1005C0000730873D7408810523088931C4218231B1
:1005D000003A0319EC2AED2A132B20002308023ECF
:1005E000860087010108F4002208163EF500F60196
:1005F0000730F63D7508860076088700740881008C
:100600002308033E860087010108F4002208173EF4
:10061000F500F6010730F63D75088600760887007C
:10062000740881004A2B20002208163EF400F501D0
:100630000730F53D7408860075088700203081007A
:1006400023088931AB218231003A0319282B292B49
:100650003D2B20002308033E860087010108F4009B
:100660002208173EF500F6010730F63D75088600B2
:1006700076088700740881004A2B20002208173E64
:10068000F400F5010730F53D740886007508870011
:10069000203081002308043E860087010108F40011
:1006A000F5010930F435F50D890B522B73354B3EAE
:1006B000860087017408C03F7508C13F080020000C
:1006C000A10021088D3176258331F60076082000BF
:1006D000A00021088931AB218331003A031D712B21
:1006E000722BA92B200020354B3E86008701403F0E
:1006F000F600413FF7002108043E8600870101080B
:10070000F800F9010930F835F90D890B832B7708CA
:100710007902031D8D2B760878020318902B912BFC
:10072000A42B0130F6002108053E860087017608DB
:1007300081070F300102031C9E2B9F2BFC2B2108ED
:100740008931EF218331FC2B21088931EF2183315D
:10075000FC2B20002108043E860087010108F600DA
:10076000F701F635F70D2108063E86008701203592
:100770004B3E84008501403F0002F2000131413FC1
:10078000003BF3008B318B23833177087302031D09
:10079000CB2B760872020318CE2BCF2BDD2B20300B
:1007A000F60020002108023E8600870176088100BD
:1007B00021088931E3218331FC2B0230F60020002F
:1007C0002108033E86008701760881072108033E41
:1007D0008600870120300102031CEF2BF02BFC2B3D
:1007E0002030F6002108023E86008701760881004D
:1007F00021088931E321833108002000C700470820
:10080000C400C501C435C50D1530440784009030BF
:10081000453D85000008C6004608C9004708C400D9
:10082000C501C435C50D1630440784009030453DE0
:1008300085000008C6004608CA004A08C4004408EB
:10084000C00049088631BA2683312000C50045081A
:10085000C800722C49088A316D228331003A03198D
:10086000322C332C4D2C20005908031D382C392CE8
:100870003D2C49088C316724833120004908893197
:100880009D21833120004908860087010108C400AA
:100890004408F20089313421833120004A088A312A
:1008A0006D228331003A0319562C572C952C2000C9
:1008B0005908031D5C2C5D2C612C4A088C3167247F
:1008C000833120004A0889319D21833120004A0864
:1008D000860087010108C4004408F20089313421F0
:1008E0008331952C4808C400C501C41BC5034508C5
:1008F000003A03197F2CFF3A0319842C952C4408E5
:10090000003A03192A2C952C4408FB3A0319952C1C
:10091000073A0319952C013A0319952C033A031948
:10092000952C013A0319952C952C200048080800B5
:1009300020002508093E860087010108803AA600AC
:1009400025080E3E860087010103FF3A803AA60281
:100950000318AB2CAC2CD52C25080A3E8600870149
:100960000130810741310318810A25080A3E8600BB
:100970008701403FA600413FA700003027024130D9
:1009800003192602031CC52CC62C062D25080A3E79
:10099000860087010030C03FC13F250886008701DF
:1009A00001088D3143258431062D2508093E860036
:1009B00087010108A600A701A61BA70325080E3E74
:1009C000860087012708803A803C031DE92C260811
:1009D00001020318EC2CED2CFE2C02302000A600A6
:1009E0002508023E860087012608810025080A3E68
:1009F000860087010030C03FC13F062D200025083A
:100A00000A3E860087010030C03FC13F2000250814
:100A10000C3E860087010130810741310318810AAD
:100A200025080C3E860087011600803AA6001600B5
:100A3000A604031D1C2D1D2D282D25080C3E860007
:100A400087010030C03FC13F250885312925843109
:100A50000800F8008B1F2D2D2E2D712D8B1378087B
:100A6000053E86008701403FF200413FF300423FD0
:100A7000F400433FF5000430F536F40CF30CF20CAF
:100A8000890B3C2D7808053E86008701720881029B
:100A900041317308813B41317408813B4131750814
:100AA000813B7D317808033E86008701403FF2009C
:100AB000413FF3007208F4007308F500F601F701F6
:100AC0007808053E86008701740881074131750862
:100AD000813D41317608813D41317708813D8B1759
:100AE000B12D7808053E86008701403FF200413F66
:100AF000F300423FF400433FF5000430F536F40CB8
:100B0000F30CF20C890B7E2D7808053E86008701D8
:100B10007208810241317308813B41317408813B85
:100B200041317508813B7D317808033E860087019D
:100B3000403FF200413FF3007208F4007308F500F3
:100B4000F601F7017808053E8600870174088107E1
:100B500041317508813D41317608813D4131770849
:100B6000813D0800F2007208053E86008701403F83
:100B70002000A000413FA100423FA200433FA3004C
:100B80000430A336A20CA10CA00C890BC12D720855
:100B9000033E86008701403FA400413FA500240892
:100BA000A6002508A700A801A9012008A60221087F
:100BB000A73B2208A83B2308A93B2908F6002808E0
:100BC000F5002708F4002608F3007308A000740855
:100BD000A1007508A2007608A30072080F3E8600E7
:100BE0008701010AF72DA337A20CA10CA00C890BD9
:100BF000F32D2308F6002208F5002108F400200850
:100C0000F300F61B112E7608031D122E7508031D26
:100C1000122E7408031D122E80307302031C112E35
:100C2000122E1A2E0030F6000030F5000030F400CD
:100C30007F30F300F61F272E80307302FF30743BA5
:100C4000FF30753BFF30763B0318272E282E302EC1
:100C5000FF30F600FF30F500FF30F4008030F30085
:100C60007308A0007208093E8600870120088100F1
:100C700008002000B6005208B5005108B400B5368F
:100C8000B40CB536B40C51083407B7005208353DE2
:100C9000B8005F08B4003408B9004C08BC004B0829
:100CA000BB004E08BE004D08BD00BF013F08103E0E
:100CB000840090300318013E85000008B400340819
:100CC000DF07AE305F020318662E672E6B2EAE3044
:100CD000B4003408DF070530B4003408BA007A2EB7
:100CE00001302000BA023A08031D772E782E7A2EA2
:100CF000FC30B92E3308B4003408A4003608803123
:100D00006B208631003A031D862E872E702E200020
:100D100052083802031D8E2E510837020318912EF7
:100D2000922EA22E5208B8005108B7005F08B400F6
:100D30003408B9004C08BC004B08BB004E08BE008C
:100D40004D08BD000130B4003408BF0705303F0234
:100D5000031CAB2EAC2E562E3908B4003408DF002D
:100D60003C08CC003B08CB003E08CE003D08CD003F
:100D7000003008002000C3000530C1004108C20057
:100D80004308031DC42EC52ED62E4008031DC92EB0
:100D9000CA2ED62EFF302A2F01302000C202420870
:100DA000031DD32ED42ED62EFC302A2F4008C1008E
:100DB0004108A400430880316B208631003A031DAE
:100DC000E22EE32ECC2E200043080319E82EE92E54
:100DD000ED2E43088E31212686312000400803196C
:100DE000F22EF32EF72E40088E3121268631200078
:100DF00043088A310B228631003A0319002F012F54
:100E00000B2F200043088931C4218631003A031D8D
:100E10000A2F0B2F1F2F200040088A310B2286310A
:100E2000003A0319142F152F292F2000400889316B
:100E3000C4218631003A03191E2F1F2F292F2000AD
:100E40004008C1004108B300430886313926863185
:100E50002A2F003008008A31FA2287318B170B17AE
:100E600022000E170E148C311D248731003A03190D
:100E70003A2F3B2F332F20005E080319402F412FBC
:100E8000562F0130CF070030D03D07305002D03010
:100E900003194F02031C4D2F4E2F832F8B31C0237C
:100EA00087312000DE0122000E14832F00308C31A8
:100EB000E5248731003A03195E2F5F2F762F220039
:100EC0000E138931BB218731003A0319682F692F2E
:100ED000732F22000C160630890B6C2F0032623003
:100EE0008C318F24873122000E14832F20000C199F
:100EF0007A2F7B2F7F2F22008E170E13822F220036
:100F00008E130E170E10893143218731003A0319D1
:100F10008A2F8B2F332F22000C12332F80313B2846
:100F2000200025080A3E86008701403FA600413F79
:100F3000A700003027020930031926020318A12F49
:100F4000A22FA72F25088C31B9248731AB2F250874
:100F5000853129258731200025080A3E8600870132
:100F60000130810741310318810A25080A3E8600B5
:100F70008701403FA600413FA70000302702103004
:100F800003192602031CC52FC62FEE2F2508053E88
:100F900086008701403FA600413FA700423FA800CE
:100FA000433FA9000430A936A80CA70CA60C890B56
:100FB000D32F2508033E860087012608C03F270857
:100FC000C13F2508023E860087018101810A25086C
:100FD0000A3E860087010030C03FC13F0800200064
:100FE000A10121088A31E422873101302000A000CC
:100FF0002008A10721080319FE2FFF2FF12F080059
:1012640008000800080020001C15080020001C11BC
:1012740008008B3171238931080023001D121D16CB
:10128400080023001E0C01390800893154218931DA
:1012940008001630210097000800F20072082000B0
:1012A4009B000800B8308C31402489310800730851
:1012B4002100D3007208D200080073082100D7006F
:1012C4007208D600080073082100D5007208D40003
:1012D400080073082100D9007208D80008007308B8
:1012E4002000EE007208ED00080073082000EA00F8
:1012F4007208E9000800703021009900220096016C
:101304000800640080010131890B84290034FE0047
:1013140012001E00FE0B8A290034F2007208083EF7
:101324008600870181140800F2007208083E8600D6
:10133400870181100800F2007208083E86008701C8
:1013440001140800F2007208083E860087010110AB
:101354000800F2007208083E86008701010E013978
:101364000800FF3020009B009A01911004309C007B
:10137400080020006F08031DC029C2290130C329B9
:1013840000300800F2007208083E86008701010C54
:10139400890C013908009034073498340434F93442
:1013A4000E3463340E34A2340F3420005B08F10091
:1013B4005A08F0008A31392289312000D701D70A2E
:1013C4000800F2007208083E8600870101157208C1
:1013D400083E8600870101120800F2007208083EE8
:1013E4008600870101167208033E86008701810189
:1013F400810A0800F7000930F6007608F200770841
:101404008A31B9228931683E860087010108013991
:101414000800F2007208031D102A112A132A003052
:10142400192A7208083E86008701010C0139080058
:101434009234FD34343409340134AE34003431345C
:101444003034103420340034003400340034FC30A0
:1014540020009C052E0091012F00910180302E0068
:1014640092004030940040302F0094000800200087
:10147400181D3D2A3E2A452A181071089700700845
:1014840096001814492A71089700700896000800FD
:101494002000AF012F088F314C278A310130200002
:1014A400AE002E08AF072F080319592A5A2A4C2ACE
:1014B40008002000A3008B1F602A612A682A8B136E
:1014C40023088E31AA268A318B176C2A23088E3181
:1014D400AA268A310800F30073080319722A732AB2
:1014E4007D2A7308083E86008701010CF200F20C85
:1014F400720C01397E2A00300800F7007708031DBA
:10150400842A852A912A0930F6007608F2007708A1
:101514008A31B9228A31683E8600870101110800A8
:10152400F7007708031D972A982AA42A0930F600A1
:101534007608F20077088A31B9228A31683E86003B
:101544008701811508008731EF278A318B31C02349
:101554008A318B31DD238A318A3129228A31D7308D
:10156400F2000930F300893177218A310800F5004F
:10157400F401751CBE2ABF2AC32A7208F30073083B
:10158400F4070310F20D0310F50C7508031DCB2AA4
:10159400CC2ABB2A74080800200011106C08F10042
:1015A4006B08F0008A3139228A31200069086A0404
:1015B4000319DD2ADE2AE32A6A088A0069080A0078
:1015C4008A310800F90079088A3192228A3179082F
:1015D4008A317F228A310930F8007808F2007908CC
:1015E4008A31B9228A31603E8931A4218A310800C6
:1015F4008B31A5238A3189317D218A3189314B216F
:101604008A318931B3218A318B3127238A318D3153
:10161400E2258A318A31A5228A310800F700770849
:10162400031D152B162B252B0930F6007608F20026
:1016340077088A31B9228B31683E86008701010C14
:10164400890C0139262B0030080020009901FD3057
:101654009700943096001708EC001608EB00111060
:10166400210011143330F2000930F300893177215D
:101674008B31C530200098000800F9007908031D5B
:10168400442B452B552B0930F8007808F2007908D3
:101694008A31B9228B31663E86008701403FF600CD
:1016A400413FF700572BF601F70108002100DB0149
:1016B4005B088331FD238B31003A0319622B632BC2
:1016C400652B0030702B01302100DA005A08DB074B
:1016D4005B0803196E2B6F2B5A2B01300800230073
:1016E4001908F0007B08A83E860087017008810075
:1016F4000130F0007008FB0708307B02031C832BC9
:10170400842B852BFB010130F00070082000D407E6
:1017140008007308803AF40080307402031D942B8F
:10172400013072020318972B982BA42B7209F40032
:101734007309F500F40A0319F50A7408F200750830
:10174400F300A42B080022008C018D018E012F30A0
:1017540021008C0070308D002A308E003E30230032
:101764008E0050308D0023308C0024008D01043015
:101774008C002100951322009D0108000030F20026
:101784009030F3001030F4000030F500B8308D31A3
:1017940014258B312000A60126088D3143258B3179
:1017A40001302000A5002508A60726080319DB2B15
:1017B400DC2BCE2B08006030F3007308F40060309B
:1017C400F300740873020318E82BE92BEA2BFA2BB5
:1017D40074088931A4218B310930F3007308F407AC
:1017E4006030F300740873020318F92BFA2BEA2B08
:1017F4000800083020006F020318012C022C1A2C58
:101804005508B03E86008701010823009A00013084
:10181400F00070082000D50708305502031C132C73
:10182400142C152CD5010130F0007008EF071C2C86
:10183400210011120800200057080319222C232C20
:101844002B2C8B3158238C31003A031D2A2C2B2C42
:101854002D2C00303F2C8A314A228C3180310220D9
:101864008C312100DC005C082000D7008B31DD23A3
:101874008C31893147218C3101300800F40074081F
:10188400023E8600870103300106031D4A2C4B2CBF
:10189400662C74080A3E86008701013081074131B5
:1018A4000318810A74080A3E8600870116000104A1
:1018B400031D5D2C5E2C662C74080A3E860087018D
:1018C400FF30C03FFF30C13F0800F80078088D3179
:1018D40076258C31F6007608F7008B1F722C732C5A
:1018E400822C8B1377354B3E860087017808063EA1
:1018F40084008501403F803F413F813F8B178E2C00
:1019040077354B3E860087017808063E84008501C2
:10191400403F803F413F813F0800F30020006F08B3
:101924000319952C962C902C2100111A9A2C9B2C7F
:101934009F2C730823009A00B62C11127308F2002E
:1019440020005608B03E86008701720881000130ED
:10195400F2007208D60708305602031CB22CB32CCE
:10196400B42CD6010130EF0221001116080020002A
:10197400A400240A8600870101088B313F238C319F
:1019840076082000A0007708A100A201A301240882
:10199400053E860087012008C03F2108C13F220878
:1019A400C23F2308C33F2408053E86008701043054
:1019B40081354131810D4131810D4131810D7D31BF
:1019C400890BDA2C0800F4007408031DEA2CEB2CB4
:1019D400122DF301F30A7408F2000330F235FF3ECE
:1019E400031DF02C7235BA3E8600870103300106D0
:1019F4000319FD2CFE2C102D7408F2000330F2356F
:101A0400FF3E031D012D7235BA3E86008701043066
:101A1400010603190E2D0F2D102DF3017308132D3C
:101A2400003008002000A3007308A2007208A1007F
:101A34002308F6007608A400362D21088400220825
:101A440085000008F6007608A0000130A1070030E8
:101A5400A23D2008F600240886008701760881004C
:101A64000130F6007608A4070130F4020030F53B9B
:101A7400740A031D412D750A031D412D422D1F2D8E
:101A840008002000A0002008F8000330F835FF3ECD
:101A9400031D482D7835B83EF9007908A1002108C6
:101AA400023E8600870181012108053E86008701E8
:101AB4000030C03F0030C13FC23FC33F21080A3E4F
:101AC400860087010030C03FC13F21080C3E8600DC
:101AD40087010030C03FC13F210A86008701010809
:101AE4008A317F228D310800F400F5017508F20077
:101AF400F301F235F30D1530720784009030733D15
:101B0400850000087406031D882D892D8B2D003057
:101B1400A82D7508F200F301F235F30D16307207A3
:101B240084009030733D850000087406031D9B2DCE
:101B34009C2D9E2D0130A82D0130F2007208F5076E
:101B440075080319A62DA72D782D892D08007B086B
:101B5400A03E86008701810123001D1DB22DB32DF7
:101B6400BE2D7B08A03E8600870181142100570802
:101B74008A0056080A008D3123009D1CC22DC32DF6
:101B8400CE2D7B08A03E8600870101152100550853
:101B94008A0054080A008D317B08A03E8600870124
:101BA40001080319D62DD72DDE2D210053088A00F4
:101BB40052080A008D31E12D8B3171238D310800DB
:101BC40021009112A930F2000D30F30089316B210C
:101BD4008D3121001112FB30F2000B30F3008931FA
:101BE40071218D31083023009F0090309D002430F6
:101BF4009E0067309B009C013230F2000930F300F4
:101C040089315F218D313F30F2000930F300893191
:101C140065218D313B30F2000930F30089315921BF
:101C24008D312000D301D601D5010830F4007408A9
:101C3400EF00FB01FA01D4012100911608002000F5
:101C4400A30023088D3176258E31F6007608200016
:101C5400A00023088A316D228E31003A0319332EF5
:101C6400342E4D2E20002308063E860087012035A1
:101C74004B3E84008501403F0002F2000131413FA8
:101C8400003BF3008B318B238E3173082000A200BC
:101C94007208A100502E2000A101A20100302202EE
:101CA400653003192102031C582E592E5E2E230879
:101CB40089318F218E31622E2308893196218E310C
:101CC4000800200025080A3E86008701403FA60040
:101CD400413FA70017302702703003192602031C66
:101CE400742E752E7D2E25088600870101088D31FE
:101CF40043258E31A92E2508093E86008701010857
:101D0400803AA60025080E3E8600870125080E3E6F
:101D1400840085010008A7000430A736890B8F2EA4
:101D240027080102803AA6020318992E9A2EA92E9A
:101D34000430A6002508023E86008701260881009B
:101D440025080A3E860087010030C03FC13F0800D5
:101D54002000A2002208023E860087010108031920
:101D6400B42EB52EE82E2208033E86008701403F9C
:101D7400A000413FA1000430A136A00C890BBE2E67
:101D84002208033E86008701200881024131210890
:101D9400813B7F31220A8600870101088B313F2372
:101DA4008E3176082000A0007708A1000430A13607
:101DB400A00C890BD92E2208033E86008701200837
:101DC400810741312108813D7F31F82E220A8600A6
:101DD400870101088B313F238E3120002208033E06
:101DE400860087017608C03F7708C13F08002000BD
:101DF4002508093E860087010108A600A701A61B45
:101E0400A70325080E3E860087012708803A803CF8
:101E1400031D0E2F260801020318112F122F3D2F28
:101E2400200025080A3E86008701013081074131E0
:101E34000318810A25080A3E86008701403FA60050
:101E4400413FA700003027020A3003192602031C71
:101E54002C2F2D2F4B2F0330A6002508023E860081
:101E640087012608810025080A3E86008701003084
:101E7400C03FC13F4B2F20002508023E860087014A
:101E84008101810A25080A3E860087010030C03F8F
:101E9400C13F08002000AC002C08AA000330AA357A
:101EA400FF3E031D512F2A35B83EAB002B08AD0071
:101EB4002D0A8600870101088931FC218F31003AFF
:101EC4000319652F662FA12F20002D0A8600870194
:101ED40001088B3110238F31003A0319722F732FAD
:101EE400A12F20002D088A315B228F3120002D087C
:101EF4008531B2258F3120002D08023E86008701EE
:101F040005300102031C872F882F8F2F2D08860090
:101F1400870101088D3143258F3120002D08AA0047
:101F24002A08A5002D08023E860087010135C83E17
:101F340086008701413F8A00403F0A008F31080034
:101F440020002508093E860087010108803AA60082
:101F540025080E3E8600870125080E3E8400850173
:101F64000008A7000430A736890BB52F2708010203
:101F7400803AA6020318BF2FC02FF02F25080A3E6F
:101F8400860087010130810741310318810A250841
:101F94000A3E86008701403FA600413FA70000306B
:101FA40027020A3003192602031CD92FDA2FFF2F28
:101FB4002508023E860087018101810A25080A3E20
:101FC400860087010030C03FC13F25080C3E8600D3
:101FD4008701FF30C03FFB30C13FFF2F0330A60015
:101FE4002508023E860087012608810025080A3E4E
:101FF400860087010030C03FC13F08000034003430
:10200400003400340034003400340034003400342C
:1020140000340034003400341434013400340D34FA
:0A2024001C341E34173460340034FD
:020000040001F9
:04000E00E4FDFFFF0F
:00000001FF
