:020000040000FA
:1000000080312E28003008007E1480310B1F092813
:100010000A282C282100111E0E280F281B2820003A
:10002000111E132814281B28210065088A00640863
:100030000A0080312C282100911E1F2820282C28FE
:100040002000911E242825282C28210063088A00DE
:1000500062080A0080312C287E1009008031302887
:1000600028308400883085006A30860000308700A0
:10007000053088315D2080317B3084008B308500F5
:10008000A030860000308700243088315D20803128
:10009000FC01493084000030850021308831572030
:1000A0008031C430840000308500183088315720FA
:1000B00080317E1020008B31172B2000AD00A8016D
:1000C000A901AA01AB01A701A401A5012D080319EB
:1000D0006A286B28B3287B0803196F287028B32877
:1000E0002D08083E860087018119772878288828FE
:1000F0007B08083E86008701811D7F28802888288C
:100100002D08083E860087018115A401A40AD9287C
:100110007B08083E8600870181198F289028A02837
:100120002D08083E86008701811D97289828A02861
:100130007B08083E860087018115A501A50AD928FC
:100140002D08083E860087018119A728A828B22813
:100150007B08083E860087018119AF28B028B228A5
:100160000030802AD9282D08031DB728B828C628B2
:100170007B080319BC28BD28C6287B08083E8600DA
:1001800087018119C428C528D928B0282D0803194A
:10019000CA28CB28D9287B08031DCF28D028D928E6
:1001A0002D08083E860087018119D728D828D9282C
:1001B000B0287B088831B9208031003A0319E12842
:1001C000E228E5282000A701A70A2E001208200037
:1001D000A0002008A1002E0013082000A000200885
:1001E000A2002F0013082000A0002008A3008831DF
:1001F000D720803120002D080319FF28002912295B
:100200002D08043E860087010108FF3EA00020085B
:10021000AC00A60140302E0098002F00980122006B
:100220001D1024297B08043E860087010108FF3E3B
:10023000A0002008AC00A601A60A2E0098014030BC
:100240002F00980022001D14F20120002D08853196
:1002500036258031F201F20A7B088531362580315E
:10026000200051105111D1116E0888311E208031AB
:100270008831032080312000CD01CE012608031DE6
:10028000422943294E29111B462947294829D110C3
:10029000111F4B294C29482911135829121B512988
:1002A00052295329D110121F5629572953291213A5
:1002B0002130A00020082E00980621302000A00048
:1002C00020082F009806C0302000A00020082E0033
:1002D0009406C0302000A00020082F0094062000C3
:1002E0002C1873297429BF292E001A082000C90769
:1002F0002E001B082000CA3D2F001A082000CB0743
:100300002F001B082000CC3D2708031D88298929C0
:10031000A4292E001A0820002A02F1002E001B0832
:1003200020002B3BF2008A316722803171082000C7
:10033000CD077208CE3D2E001B082000AB002E001A
:100340001A082000AA00022A2F001A0820002A02F8
:10035000F1002F001B0820002B3BF2008A3167229E
:10036000803171082000CD077208CE3D2F001B0898
:100370002000AB002F001A082000AA00022A2E003D
:100380001A082000C9022E001B082000CA3B2F00BB
:100390001A082000CB022F001B082000CC3B2708A6
:1003A000031DD329D429EF292E001A082000280282
:1003B000F1002E001B082000293BF2008A31672241
:1003C000803171082000CD077208CE3D2E001B0839
:1003D0002000A9002E001A082000A800022A2F00E1
:1003E0001A0820002802F1002F001B082000293BDA
:1003F000F2008A316722803171082000CD0772082F
:10040000CE3DE6292C08031D062A072A082A511486
:100410000130AC02D11C0D2A0E2A102A511551149C
:10042000D114511C142A152A3E2988310620803106
:10043000200021082E009200200022082E009300A8
:10044000200023082F0093002000511D282A292A6C
:100450002B2AFB30802AD11D2E2A2F2A312AFA304E
:10046000802A24080319352A362A3B2A2D08083EFB
:10047000860087018111250803193F2A402A452A51
:100480007B08083E8600870181112D0889314C21A7
:100490008031003A03194D2A4E2A5D2A20002D088A
:1004A000883188208031003A031D572A582A5D2A56
:1004B00020002D088631982680317B0889314C2117
:1004C0008031003A0319652A662A732A7B0888312D
:1004D00088208031003A031D6E2A6F2A732A7B0818
:1004E0008631982680312E0096012F0096012E002D
:1004F00097012F0097012E0011102F001110B02826
:1005000008002000B30033088A31D82282317108F4
:100510002000A5007208A6007308A7007408A800B0
:1005200033088A319C22823120002008A50221084C
:10053000A63B2208A73B2308A83B2808B2002708AF
:10054000B1002608B0002508AF002F08A50030082C
:10055000A6003108A7003208A800330EF03933078F
:100560003307693E86008701010ABA2AA837A70C1B
:10057000A60CA50C890BB62A2808B2002708B100E2
:100580002608B0002508AF00B21BD42A3208031D8C
:10059000D52A3108031DD52A3008031DD52A8030FD
:1005A0002F02031CD42AD52ADD2A0030B2000030E5
:1005B000B1000030B0007F30AF00B21FEA2A8030B7
:1005C0002F02FF30303BFF30313BFF30323B03180E
:1005D000EA2AEB2AF32AFF30B200FF30B100FF30E5
:1005E000B0008030AF00B21FF62AF72A002B330E7E
:1005F000F03933073307633E860087018101982B6A
:100600002F08803AA500330EF03933073307683ED0
:10061000860087010108A60003300310A61B0314FF
:10062000A60C890B0D2B2608803AA5020318192B5E
:100630001A2B342B330EF03933073307633E860011
:1006400087010108803A7F3E031C272B282B982B1B
:10065000FF30A500330EF03933073307633E8600C1
:10066000870125088107982B330EF03933073307AC
:10067000633E860087010108A50002300310A51B18
:100680000314A50C890B3E2B330EF03933073307C7
:10069000633E8600870125088102330EF039330757
:1006A0003307633E860087010108A500A601A51B4C
:1006B000A6037F30A70025082702A80026090318F3
:1006C000890AA9002808AA002908AB000030AB1B42
:1006D000FF30AC00AD003208803AAE002D08803A01
:1006E0002E02031D7D2B2C083102031D7D2B2B08B0
:1006F0003002031D7D2B2A082F020318802B812B2B
:100700008D2B2F08A500330EF03933073307633ED6
:100710008600870125088107982B7F30A500330EBE
:10072000F03933073307633E8600870125088100CF
:100730000800200025088600870101088A31D82298
:10074000833171082000A6007208A7007308A80072
:100750007408A90025088600870101088A319C22B7
:10076000833120002008A6022108A73B2208A83BCD
:100770002308A93B2908B0002808AF002708AE00CD
:100780002608AD002508103E860087010108A60056
:10079000A701A61BA703A609A709A60A0319A70A6A
:1007A0002608A8002708A9000030A91BFF30AA00CE
:1007B000AB003008803AAC002B08803A2C02031DB5
:1007C000EB2B2A082F02031DEB2B29082E02031DF9
:1007D000EB2B28082D020318EE2BEF2B182C2508E5
:1007E0000C3E860087010130810741310318810AE0
:1007F00025080C3E86008701403FA600413FA70028
:1008000000302702213003192602031C082C092C72
:100810004B2C25080C3E860087010030C03FC13FAD
:1008200025088600870101088B319F2383314B2CDB
:100830002508103E860087010108803AA600250899
:100840000B3E860087010108803AA6020318292C76
:100850002A2C442C0230A6002508023E860087017F
:100860002608810025080C3E860087010030C03F25
:10087000C13F2508860087010108A6002608F1006F
:100880008831002083314B2C25080C3E86008701DF
:100890000030C03FC13F200025080E3E8600870182
:1008A0000130810741310318810A25080E3E860078
:1008B00087011600803AA6001600A604031D612CCD
:1008C000622C6D2C25080E3E860087010030C03F4B
:1008D000C13F250887313027833108000A30F100F5
:1008E0000030F20020005008A500A6012508F30002
:1008F0002608F4008D31D225843171087204031D5D
:10090000822C832C982C2000A7012708A03E86006B
:100910008701010888312D20843101302000A50095
:100920002508A70713302702031C972C982C852C29
:10093000553088312D2084312000500888312D20F9
:1009400084312000AA012A080319A72CA82CA92C5D
:100950000C2D2A088A31D822843172082000A9007F
:100960007108A800280888312D208431200029082A
:1009700088312D20843120002A088A319C2284313C
:1009800020002108A9002008A800280888312D206F
:1009900084312000290888312D20843120002A0844
:1009A0008831F72084312000A800A901A81BA903E1
:1009B000280888312D2084312000290888312D20F5
:1009C000843120002A088931082184312000A500C3
:1009D000A6012508A8002608A900280888312D208E
:1009E00084312000290888312D20843120002A08F4
:1009F00089311921843188312D20843120002A0841
:100A00008A310322843188312D2084310130200045
:100A1000A5002508AA07A32CAA012A080319112D4D
:100A2000122D132D282D2A088931C12184318831B6
:100A30002D20843120002A088931AC21843188316D
:100A40002D20843101302000A5002508AA070D2D96
:100A5000500888312D20843101302000A500250860
:100A6000D007AA3088312D2084310800F900790898
:100A7000031D3B2D3C2D3D2DFC2D7208031D412DEA
:100A8000422D452DF601F701492D8030F60000304A
:100A9000F7007608F3007308F800790A86008701EA
:100AA0000108F3007808113EF400F5010730F53D28
:100AB0007408860075088700730881007908053E70
:100AC000860087010108F3007808193EF400F5015B
:100AD0000730F53D740886007508870073088100AB
:100AE0007808133EF300F4010730F43D73088600E4
:100AF0007408870050308100FE30F3007808183EFB
:100B0000860087010730873D7308810579088831A1
:100B100088208531003A03198E2D8F2DB42D790848
:100B2000023E860087010108F3007808163EF400B3
:100B3000F5010730F53D74088600750887007308D5
:100B400081007908033E860087010108F3007808D8
:100B5000173EF400F5010730F53D7408860075086E
:100B6000870073088100E82D7808163EF300F40131
:100B70000730F43D73088600740887002030810038
:100B80007908883178208531003A0319C82DC92D9C
:100B9000DC2D7908033E860087010108F300780800
:100BA000173EF400F5010730F53D7408860075081E
:100BB000870073088100E82D7808173EF300F401E0
:100BC0000730F43D730886007408870020308100E8
:100BD0007908043E860087010108F300F40109301A
:100BE000F335F40D890BF02D7235493E86008701EF
:100BF0007308C03F7408C13F08002000C2004208CB
:100C0000BF00C001BF35C00D17303F0784009030D2
:100C1000403D85000008C1004108C4004208BF00F3
:100C2000C001BF35C00D18303F0784009030403DF3
:100C300085000008C1004108C5004508BF003F0805
:100C4000BB0044088E31922685312000C000400848
:100C5000C300722E440889314C218531003A0319B2
:100C6000322E332E4D2E20005208031D382E392EE1
:100C70003D2E44088B31ED23853120004408883116
:100C80007120853120004408860087010108BF00DB
:100C90003F08F10088310120853120004508893165
:100CA0004C218531003A0319562E572E952E2000DF
:100CB0005208031D5C2E5D2E612E45088B31ED23FD
:100CC0008531200045088831712085312000450894
:100CD000860087010108BF003F08F100883101202C
:100CE0008531952E4308BF00C001BF1BC0034008DB
:100CF000003A03197F2EFF3A0319842E952E3F08E0
:100D0000003A03192A2E952E3F08FB3A0319952E17
:100D1000073A0319952E013A0319952E033A031940
:100D2000952E013A0319952E952E200043080800B0
:100D3000FA007A088C3198248631F5007508F9009C
:100D40007A08883178208631003A031DA82EA92E12
:100D5000DF2E7935493E86008701403FF500413F4F
:100D6000F6007A08043E860087010108F700F801C2
:100D70000930F735F80D890BB92E76087802031D76
:100D8000C32E750877020318C62EC72EDA2E01303F
:100D9000F5007A08053E86008701750881070F3047
:100DA0000102031CD42ED52E2F2F7A0888319D20C6
:100DB00086312F2F7A0888319D2086312F2F7A088F
:100DC000043E860087010108F500F601F535F60DB1
:100DD0007A08063E860087017935493E8400850100
:100DE000403F0002F1000131413F003BF2008A31F7
:100DF0006722863176087202031D002F7508710282
:100E00000318032F042F112F2030F5007A08023E1B
:100E100086008701750881007A0888319120863123
:100E20002F2F0230F5007A08033E860087017508EF
:100E300081077A08033E8600870120300102031CE7
:100E4000222F232F2F2F2030F5007A08023E860014
:100E50008701750881007A08883191208631080061
:100E6000F5008B1F342F352F762F8B137508073E17
:100E700086008701403FF100413FF200423FF3000E
:100E8000433FF4000430F436F30CF20CF10C890B00
:100E9000432F7508073E86008701710881024131A2
:100EA0007208813B41317308813B41317408813BB9
:100EB0007D317508033E86008701403FF100413FC8
:100EC000F200423FF300433FF4007508073E8600FE
:100ED00087017108810741317208813D41317308F2
:100EE000813D41317408813D8B17B42F7508073E51
:100EF00086008701403FF100413FF200423FF3008E
:100F0000433FF4000430F436F30CF20CF10C890B7F
:100F1000832F7508073E86008701710881024131E1
:100F20007208813B41317308813B41317408813B38
:100F30007D317508033E86008701403FF100413F47
:100F4000F200423FF300433FF4007508073E86007D
:100F500087017108810741317208813D4131730871
:100F6000813D41317408813D0800200025080C3E78
:100F700086008701403FA600413FA70000302702BE
:100F80000930031926020318C62FC72FCC2F2508B6
:100F90008C313F248731D02F250887313027873186
:100FA000200025080C3E8600870101308107413171
:100FB0000318810A25080C3E86008701403FA600E1
:100FC000413FA70000302702103003192602031CFE
:100FD000EA2FEB2FF82F2508023E860087018101BA
:100FE000810A25080C3E860087010030C03FC13FC2
:100FF0000800F1007108083E860087010110080012
:1010000008000800080020001C15080020001C1122
:1010100008008A314D228831080023001D121D1658
:1010200008008831232088310800163021009700FD
:10103000080000308D31802588310800F1007108EA
:1010400020009B00080058308B31C62388310800EF
:101050000034083401340834AE34F30073088C31A2
:1010600015248831080072082100DD007108DC00B9
:10107000080072082100E1007108E0000800720811
:101080002100DF007108DE00080072082100E30083
:101090007108E200080072082100E5007108E40010
:1010A00008007030210099002200960108006400B9
:1010B00080010131890B58280034FE0012001E0007
:1010C000FE0B5E280034F1007108083E860087019F
:1010D00081140800F1007108083E86008701811024
:1010E0000800F1007108083E86008701011408001D
:1010F000F1007108083E86008701010E01390800E1
:10110000FF3020009B009A01911004309C000800E1
:10111000F1007108083E86008701010C890C013935
:101120000800F1007108083E86008701011571086A
:10113000083E8600870101120800F1007108083E90
:101140008600870101167108033E86008701810130
:10115000810A0800F6000930F5007508F1007608EC
:10116000893197218831C33E860087010108013902
:101170000800F1007108031DBE28BF28C1280030F7
:10118000C7287108083E86008701010C0139080054
:10119000FA017A088931D62188310130F9007908BD
:1011A000FA077A080319D528D628C9280800FC3080
:1011B00020009C052E0091012F00910180302E000F
:1011C00092004030940040302F0094000800883195
:1011D000C820883189313B2188318831022088310B
:1011E0008A31BA2288318831D72088310800F1004D
:1011F0007108031DFC28FD280629710EF0397107BE
:101200007107633E86008701010807290030080046
:10121000F1007108031D0D290E291729710EF039EF
:1012200071077107693E860087010108182900309F
:101230000800F1007108031D1E291F292829710EBD
:10124000F03971077107683E860087010108292976
:1012500000300800FA008B1F2E292F2936298B1306
:101260007A088E31252689318B173A297A088E31F2
:101270002526893108000030F1009030F20012304C
:10128000F3000030F40058308C316A24893100308A
:101290008B319F2389310800F2007208031951290C
:1012A00052295C297208083E86008701010CF10072
:1012B000F10C710C01395D2900300800F600760848
:1012C000031D6329642970290930F5007508F100B0
:1012D0007608893197218931C33E86008701011143
:1012E0000800F6007608031D76297729832909303E
:1012F000F5007508F1007608893197218931C33EE0
:1013000086008701811508008A3181228931883160
:1013100051208931883115208931883180208931E7
:101320008D31412589318831E72089310800F40069
:10133000F301741C9C299D29A1297108F2007208EF
:10134000F3070310F10D0310F40C7408031DA92911
:10135000AA29992973080800F6007608031DB12907
:10136000B229BF290930F5007508F10076088931E6
:1013700097218931BE3E860087010108C0290030CF
:101380000800F6007608031DC629C729D4290930AC
:10139000F5007508F1007608893197218931C03E42
:1013A000860087010135D52900300800F80078084B
:1013B000893171218931780889315E21893109307B
:1013C000F7007708F1007808893197218931BB3E11
:1013D0008731F92789310800F6007608031DF129C5
:1013E000F229012A0930F5007508F10076088931E3
:1013F00097218931C33E86008701010C890C013990
:10140000022A00300800F1007108031D082A092A89
:10141000192A710EF039710771075A3E860087014B
:10142000023001060319152A172A0130182A003044
:101430001A2A00300800F8007808031D202A212A03
:10144000312A0930F7007708F100780889319721AF
:101450008A31C13E86008701403FF500413FF600DA
:10146000332AF501F60108002000C701470885313D
:10147000FD258A31003A03193E2A3F2A412A0030CD
:101480004C2A01302000C6004608C7074708031948
:101490004A2A4B2A362A0130080023001908F00096
:1014A0007C08CC3E86008701700881000130F00086
:1014B0007008FC0708307C02031C5F2A602A612A3E
:1014C000FC010130F00070082000D4070800720809
:1014D000803AF30080307302031D702A01307102DC
:1014E0000318732A742A802A7109F3007209F40020
:1014F000F30A0319F40A7308F1007408F200802A51
:101500000800103022008C008D018E012F30210048
:101510008C0070308D006A308E007E3023008E008B
:1015200050308D0027308C0024008D018C0121006B
:10153000951722009D010800FA007A08031DA12AD0
:10154000A22AB02A7A088A31F7228A317408200048
:10155000A3007308A2007208A1007108A000B92AB4
:1015600000302000A3000030A2000030A1000030B5
:10157000A0000800BB30F2007208F300BB30F2009C
:10158000730872020318C52AC62AC72AD72A730805
:101590008731F9278A310930F2007208F307BB302E
:1015A000F200730872020318D62AD72AC72A080045
:1015B000F6007608031DDD2ADE2AEE2A760EF039C3
:1015C000760776075B3E86008701403FF100413F8A
:1015D000F200423FF300433FF400F62A0030F400EB
:1015E0000030F3000030F2000030F1000800F90094
:1015F000790EF039790779075F3E86008701403F11
:10160000F500413FF600423FF700433FF800043049
:10161000F836F70CF60CF50C890B082B7808F4005B
:101620007708F3007608F2007508F10008008931A8
:1016300084218B318B170B1722008E178B31592386
:101640008B31003A0319252B262B1E2B00308A31B3
:1016500003228B31003A03192E2B2F2B322B220021
:101660000E141E2B22000E101E2B80312E28083047
:1016700020006F0203183D2B3E2B562B5608D43EFC
:1016800086008701010823009A000130F0007008ED
:101690002000D60708305602031C4F2B502B512B2D
:1016A000D6010130F0007008EF07582B210011120D
:1016B00008002000CF01CF0A8A3134228B31003A52
:1016C000031D632B642B662B00307A2B8831192085
:1016D0008B3184316E248B31803102208B3120009C
:1016E000C8004808CF008A31BA228B3188311120D6
:1016F0008B31013008005F34B434003486344A340E
:101700000334EB340034003400340034003400344B
:101710000034AA34553401346E34A034B53407345F
:101720009934033403340F34003408340034313432
:101730003034103420340034003400340034F200EB
:10174000720EF03972077207583EF1007108F3000B
:101750007308023E8600870181017308073E8600F8
:1017600087010030C03F0030C13FC23FC33F730814
:101770000C3E860087010030C03FC13F73080E3E1B
:10178000860087010030C03FC13F0800F3007308A6
:10179000023E8600870102300106031DD02BD12BAB
:1017A000EC2B73080C3E8600870101308107413124
:1017B0000318810A73080C3E860087011600010495
:1017C000031DE32BE42BEC2B73080C3E86008701F2
:1017D000FF30C03FFF30C13F0800F70077088C3171
:1017E00098248B31F5007508F6008B1FF82BF92B28
:1017F000082C8B137635493E860087017708063E14
:1018000084008501403F803F413F813F8B17142C6E
:101810007635493E860087017708063E84008501BB
:10182000403F803F413F813F0800F20020006F08A9
:1018300003191B2C1C2C162C2100111A202C212CD6
:10184000252C720823009A003C2C11127208F1001A
:1018500020005708D43E86008701710881000130BE
:10186000F1007108D70708305702031C382C392CB7
:101870003A2CD7010130EF02210011160800F900BF
:10188000790A8600870101088A311B228C3175088C
:101890002000A0007608A100A201A3017908073E5C
:1018A000860087012008C03F2108C13F2208C23FAF
:1018B0002308C33F7908073E86008701053081353C
:1018C0004131810D4131810D4131810D7D31890BD6
:1018D0005F2C0800F9007208F7007108F60079081B
:1018E000F5007508FA008B2C7608840077088500CF
:1018F0000008F5007508F8000130F6070030F73DE4
:101900007808F5007A0886008701750881000130A3
:10191000F5007508FA070130F3020030F43B730A52
:10192000031D962C740A031D962C972C742C08000A
:10193000F300F4017408F100F201F135F20D1730F3
:10194000710784009030723D850000087306031D06
:10195000AA2CAB2CAD2C0030CA2C7408F100F2017B
:10196000F135F20D1830710784009030723D85001A
:1019700000087306031DBD2CBE2CC02C0130CA2CE0
:101980000130F1007108F40774080319C82CC92C40
:101990009A2CAB2C08007C08C43E8600870181018C
:1019A00023001D1DD42CD52CE02C7C08C43E8600C1
:1019B00087018114210061088A0060080A008C31C7
:1019C00023009D1CE42CE52CF02C7C08C43E8600F2
:1019D0008701011521005F088A005E080A008C312A
:1019E0007C08C43E8600870101080319F82CF92CF5
:1019F000002D21005D088A005C080A008C31032D4F
:101A00008A314D228C310800F90079088C319824F4
:101A10008D31F5007508F800790889314C218D3138
:101A2000003A0319142D152D2C2D7908063E860039
:101A300087017835493E84008501403F0002F1006E
:101A40000131413F003BF2008A3167228D3172083B
:101A5000F7007108F6002E2DF601F701003077022D
:101A6000653003197602031C362D372D3C2D79087D
:101A7000883163208D31402D790888316A208D317D
:101A8000080021009112CB30F1000C30F2008831B7
:101A900045208D31210011123730F1000B30F2005A
:101AA00088314B208D31083023009F0090309D00FD
:101AB00024309E0067309B009C01FF30F1001730FE
:101AC000F200883139208D310D30F1000830F200FC
:101AD00088313F208D310930F1000830F200883123
:101AE00033208D312000D301D701D6010830F30017
:101AF0007308EF00FC01D501D40121009116080004
:101B00002000B400340EF03934073407583EFB008F
:101B10007B08B500350A8600870101088831AA20B4
:101B20008D31003A0319952D962DD12D2000350ABF
:101B30008600870101088931EC218D31003A0319B3
:101B4000A22DA32DD12D2000350889312A218D31D8
:101B500020003408823181228D3120003508023E78
:101B60008600870103300102031CB72DB82DBF2D5D
:101B700035088600870101088B319F238D312000B5
:101B80003508FB007B08A5003508023E860087016A
:101B90000135B33E86008701413F8A00403F0A007D
:101BA0008D310800F701F41FD62DD72DDE2DF30956
:101BB000F409F30A0319F40AF701F70AF21FE12DF9
:101BC000E22DE72DF109F209F10A0319F20A710871
:101BD00072040319EC2DED2D162EF601F60AF92DDF
:101BE0000130F135F20D890BF12D0130F50075084A
:101BF000F607F21FFC2DFD2DF02D72087402031D57
:101C0000032E71087302031C062E072E0B2E71087B
:101C1000F3027208F43B0130F236F10C890B0C2E02
:101C20000130F602031D152E162EFD2D770803191F
:101C30001A2E1B2E202EF309F409F30A0319F40AB5
:101C40007408F2007308F1000800F9007908023EF8
:101C500086008701010803192E2E2F2E712E790878
:101C6000033E86008701403F2000A000413FA100C5
:101C7000423FA200433FA3000130A336A20CA10CB7
:101C8000A00C890B3D2E7908033E860087012008B1
:101C9000810241312108813B41312208813B4131A0
:101CA0002308813B7D31790A8600870101088A314A
:101CB0001B228E3175082000A0007608A100A20129
:101CC000A3017908033E860087012008810741317E
:101CD0002108813D41312208813D41312308813D68
:101CE000912E790A8600870101088A311B228E31E4
:101CF00075082000A0007608A100A035A10D2008DD
:101D0000A2002108A300A401A5017908033E8600D2
:101D100087012208C03F2308C13F2408C23F25088D
:101D2000C33F08002000BE000530BC003C08BD00D9
:101D30003E08031D9C2E9D2EAE2E3B08031DA12E9A
:101D4000A22EAE2EFF30022F01302000BD023D0832
:101D5000031DAB2EAC2EAE2EFC30022F3B08BC0078
:101D60003C08FB003E0880315D208E31003A031DA7
:101D7000BA2EBB2EA42E20003E080319C02EC12E61
:101D8000C52E3E088D3104258E3120003B080319F5
:101D9000CA2ECB2ECF2E3B088D3104258E3120004C
:101DA0003E088831B9208E31003A0319D82ED92E39
:101DB000E32E20003E08883188208E31003A031D32
:101DC000E22EE32EF72E20003B088831B9208E3119
:101DD000003A0319EC2EED2E012F20003B0888312C
:101DE00088208E31003A0319F62EF72E012F20009D
:101DF0003B08BC003C08AE003E088F317F278E3187
:101E0000022F00300800200025080C3E86008701C4
:101E1000403FA600413FA70003302702E8300319E6
:101E20002602031C142F152F282F25088600870152
:101E300001088B319F238F31200025088600870100
:101E40000108A6002608F100883100208F317E2F7E
:101E50002508103E860087010108A6000130031006
:101E6000A61B0314A60C890B2F2F2508103E8600F5
:101E7000870126080102A700A801031CA803811FEF
:101E8000422FA8032000A61F462FA80A20002508DD
:101E90000B3E860087010108A900AA01A91BAA031D
:101EA0002A08803AAB002808803A2B02031D5A2FDB
:101EB0002708290203185D2F5E2F7E2F200025089A
:101EC000023E860087018101810A25080C3E8600BA
:101ED00087010030C03FC13F25080E3E86008701C4
:101EE000FF30C03FFB30C13F250886008701010855
:101EF000A6002608F100883100208F31080020005C
:101F0000B1004E08B0004D08AF00B036AF0CB0368F
:101F1000AF0C4D082F07B2004E08303DB3006E08DD
:101F2000AF002F08B4004A08B7004908B6004C08B3
:101F3000B9004B08B800BA013A08123E840090304C
:101F40000318013E85000008AF002F08EE07AE30F1
:101F50006E020318AC2FAD2FB12FAE30AF002F089B
:101F6000EE070530AF002F08B500C02F013020006C
:101F7000B5023508031DBD2FBE2FC02FFC30FF2F2B
:101F80002E08AF002F08FB00310880315D208F3113
:101F9000003A031DCC2FCD2FB62F20004E08330260
:101FA000031DD42F4D0832020318D72FD82FE82F46
:101FB0004E08B3004D08B2006E08AF002F08B40001
:101FC0004A08B7004908B6004C08B9004B08B800E9
:101FD0000130AF002F08BA0705303A02031CF12F79
:101FE000F22F9C2F3408AF002F08EE003708CA00EC
:101FF0003608C9003908CC003808CB00003008008A
:102000000034003400340034003400340034003430
:102010000034003400340034003400340034003420
:102020006434003400340D341C341E341734BB3493
:0220300000347A
:022FFE000800C9
:020000040001F9
:04000E00E4FDFFFF0F
:00000001FF
